:0400000039EF00F0E4
:100062004A6EA4984AC0A9FF00D0A4A8FED71200E5
:1000720000EE01F0490EEE6AE806FDE1000186EFAE
:1000820001F04CC0F8FF4BC0F7FF4AC0F6FFA6854F
:10009200A689F29F550EA76EAA0EA76EA683F28FAF
:1000A2001200D388D38AD38C550EA76EAA0EA76EE0
:1000B2000E01BF91040E0E01F76F060E0E01C36F03
:1000C2000E01BF81010E0F01486F1F0E0F01496F14
:1000D200FE0E926EF20E936E000E4B6E190E4A6E6B
:1000E2001C0E1BEC01F01200000E516E030E516447
:1000F20002D012001200500E4A6E000E4B6E9AECA5
:1001020000F04F6E5150010D460EF324D96E000ED1
:10011200F420DA6E4FC0DFFF5050D8B404D04E0E38
:1001220031EC00F01200512A030E5164E4D71200A0
:100132001200000E4E6E000E4D6E100E4D5C270E1C
:100142004E58D8B015D001D013D0A4AA0AD04AC0B4
:10015200D9FF4BC0DAFF000EDF6EAACF4CF04C5035
:100162001200850EE82EFED700F04D4A4E2AE5D742
:100172004AC0D9FF4BC0DAFF010EDF6E000E12003B
:100182001200000E416E040E426E000E436E000E0F
:10019200446E44501EE1F80E415CFB0E4258010EC3
:1001A2004358D8B0120001D0120041C04AF042C0F8
:1001B2004BF043C04CF044C04DF042EC00F0000E56
:1001C2004126040E4222000E4322000E4422E1D7B1
:1001D20012001200FF0E4A244A6EFF0E4B204B6E95
:1001E200FF0E4C204C6EFF0E4D204D6E4CC0F8FFA2
:1001F2004BC0F7FF4AC0F6FF000E4F6E0DD04F50B6
:10020200010D010EF324D96E000EF420DA6EDF50D8
:10021200F56E0F004F2A00D04E504F5CD8A0EFD79A
:10022200A685F29F550EA76EAA0EA76EA683F28F21
:10023200A69512004C6E000EA86E000E9C6E4CA08D
:1002420002D0A88800D04CA203D0A88C9C8C00D0ED
:100252004CA402D0A88E00D04CA602D09C8802D01A
:100262009C8A00D04CA802D0A88402D0A89400D0C6
:100272004CAA02D09C8600D04CAC02D0A38A02D0F9
:10028200A39A00D04CAE02D0A38801D0A3984AC052
:10029200ABFF4B507D6EA88A9C8E1200000E516EF1
:1002A200520E4A6E000E4B6E9AEC00F0506E525097
:1002B200D8A428D050C051F0000E4F6E1DD08980B6
:1002C200520E4A6E000E4B6E9AEC00F0506E899000
:1002D2005250D8A40BD04F50010D010EF324D96E09
:1002E200000EF420DA6E50C0DFFF04D04E0E31EC67
:1002F20000F008D04F2A00D051504F5CD8B002D045
:10030200DED700D051501200120052EC00F0AACFFA
:1003120057F0000E586E899000D0590E4A6E000EAA
:100322004B6E9AEC00F0576E5950D8A408D0420E8A
:100332005718D8A404D0410E31EC00F018D01A0E90
:10034200536EF80EE82EFED7532EFCD700D01A0EAD
:10035200536EF80EE82EFED7532EFCD700D0582A43
:10036200050E5818D8A4D9D700EF02F0D6D775ECED
:1003720000F0C2EC00F0420E31EC00F0000E416ED3
:10038200040E426E000E436E000E446E1ED04FEC01
:1003920001F05A6E5A50D8B42ED041C04AF042C031
:1003A2004BF043C04CF044C04DF05AC04EF0EBEC61
:1003B20000F0430E31EC00F05A504126000E42226A
:1003C2004322442202D017D000D041504624536E1B
:1003D20042504720546E43504820556E44504920A5
:1003E200566E5350415C54504258555043585650E3
:0E03F2004458D8A0CCD700EF02F000EF00F086
:020000040001F9
:08FFF800A8F798FFFFF9FFFBD9
:00000001FF
